{
  "contractName": "Voting",
  "abi": [
    {
      "constant": true,
      "inputs": [
        {
          "name": "candidate",
          "type": "bytes32"
        }
      ],
      "name": "totalVotesFor",
      "outputs": [
        {
          "name": "",
          "type": "uint256"
        }
      ],
      "payable": false,
      "stateMutability": "view",
      "type": "function"
    },
    {
      "constant": true,
      "inputs": [
        {
          "name": "candidate",
          "type": "bytes32"
        }
      ],
      "name": "validCandidate",
      "outputs": [
        {
          "name": "",
          "type": "bool"
        }
      ],
      "payable": false,
      "stateMutability": "view",
      "type": "function"
    },
    {
      "constant": true,
      "inputs": [],
      "name": "tokensSold",
      "outputs": [
        {
          "name": "",
          "type": "uint256"
        }
      ],
      "payable": false,
      "stateMutability": "view",
      "type": "function"
    },
    {
      "constant": true,
      "inputs": [
        {
          "name": "user",
          "type": "address"
        }
      ],
      "name": "voterDetails",
      "outputs": [
        {
          "name": "",
          "type": "uint256"
        },
        {
          "name": "",
          "type": "uint256[]"
        }
      ],
      "payable": false,
      "stateMutability": "view",
      "type": "function"
    },
    {
      "constant": false,
      "inputs": [
        {
          "name": "candidate",
          "type": "bytes32"
        },
        {
          "name": "votesInTokens",
          "type": "uint256"
        }
      ],
      "name": "voteForCandidate",
      "outputs": [],
      "payable": false,
      "stateMutability": "nonpayable",
      "type": "function"
    },
    {
      "constant": true,
      "inputs": [
        {
          "name": "",
          "type": "bytes32"
        }
      ],
      "name": "votesReceived",
      "outputs": [
        {
          "name": "",
          "type": "uint256"
        }
      ],
      "payable": false,
      "stateMutability": "view",
      "type": "function"
    },
    {
      "constant": true,
      "inputs": [],
      "name": "totalTokens",
      "outputs": [
        {
          "name": "",
          "type": "uint256"
        }
      ],
      "payable": false,
      "stateMutability": "view",
      "type": "function"
    },
    {
      "constant": true,
      "inputs": [],
      "name": "tokenPrice",
      "outputs": [
        {
          "name": "",
          "type": "uint256"
        }
      ],
      "payable": false,
      "stateMutability": "view",
      "type": "function"
    },
    {
      "constant": true,
      "inputs": [],
      "name": "allCandidates",
      "outputs": [
        {
          "name": "",
          "type": "bytes32[]"
        }
      ],
      "payable": false,
      "stateMutability": "view",
      "type": "function"
    },
    {
      "constant": false,
      "inputs": [
        {
          "name": "account",
          "type": "address"
        }
      ],
      "name": "transferTo",
      "outputs": [],
      "payable": false,
      "stateMutability": "nonpayable",
      "type": "function"
    },
    {
      "constant": false,
      "inputs": [],
      "name": "buy",
      "outputs": [
        {
          "name": "",
          "type": "uint256"
        }
      ],
      "payable": true,
      "stateMutability": "payable",
      "type": "function"
    },
    {
      "constant": true,
      "inputs": [
        {
          "name": "",
          "type": "uint256"
        }
      ],
      "name": "candidateList",
      "outputs": [
        {
          "name": "",
          "type": "bytes32"
        }
      ],
      "payable": false,
      "stateMutability": "view",
      "type": "function"
    },
    {
      "constant": true,
      "inputs": [
        {
          "name": "",
          "type": "address"
        }
      ],
      "name": "voterInfo",
      "outputs": [
        {
          "name": "voterAddress",
          "type": "address"
        },
        {
          "name": "tokensBought",
          "type": "uint256"
        }
      ],
      "payable": false,
      "stateMutability": "view",
      "type": "function"
    },
    {
      "constant": true,
      "inputs": [],
      "name": "balanceTokens",
      "outputs": [
        {
          "name": "",
          "type": "uint256"
        }
      ],
      "payable": false,
      "stateMutability": "view",
      "type": "function"
    },
    {
      "constant": true,
      "inputs": [
        {
          "name": "candidate",
          "type": "bytes32"
        }
      ],
      "name": "indexOfCandidate",
      "outputs": [
        {
          "name": "",
          "type": "uint256"
        }
      ],
      "payable": false,
      "stateMutability": "view",
      "type": "function"
    },
    {
      "inputs": [
        {
          "name": "tokens",
          "type": "uint256"
        },
        {
          "name": "pricePerToken",
          "type": "uint256"
        },
        {
          "name": "candidateNames",
          "type": "bytes32[]"
        }
      ],
      "payable": false,
      "stateMutability": "nonpayable",
      "type": "constructor"
    }
  ],
  "bytecode": "0x6060604052341561000f57600080fd5b604051610d8d380380610d8d833981016040528080519060200190919080519060200190919080518201919050508060029080519060200190610053929190610071565b508260038190555082600481905550816005819055505050506100e9565b8280548282559060005260206000209081019282156100b3579160200282015b828111156100b2578251829060001916905591602001919060010190610091565b5b5090506100c091906100c4565b5090565b6100e691905b808211156100e25760008160009055506001016100ca565b5090565b90565b610c95806100f86000396000f3006060604052600436106100db576000357c0100000000000000000000000000000000000000000000000000000000900463ffffffff1680632f265cf7146100e0578063392e66781461011b578063518ab2a81461015a5780635938750d146101835780636b2dc6b5146102185780637021939f146102485780637e1c0c09146102835780637ff9b596146102ac57806381c40715146102d5578063a03fa7e31461033f578063a6f2ae3a14610378578063b13c744b14610396578063cdf58d35146103d5578063e4494a0f14610455578063ecd098b01461047e575b600080fd5b34156100eb57600080fd5b6101056004808035600019169060200190919050506104b9565b6040518082815260200191505060405180910390f35b341561012657600080fd5b6101406004808035600019169060200190919050506104dd565b604051808215151515815260200191505060405180910390f35b341561016557600080fd5b61016d61053d565b6040518082815260200191505060405180910390f35b341561018e57600080fd5b6101ba600480803573ffffffffffffffffffffffffffffffffffffffff1690602001909190505061054b565b6040518083815260200180602001828103825283818151815260200191508051906020019060200280838360005b838110156102035780820151818401526020810190506101e8565b50505050905001935050505060405180910390f35b341561022357600080fd5b610246600480803560001916906020019091908035906020019091905050610635565b005b341561025357600080fd5b61026d6004808035600019169060200190919050506108d0565b6040518082815260200191505060405180910390f35b341561028e57600080fd5b6102966108e8565b6040518082815260200191505060405180910390f35b34156102b757600080fd5b6102bf6108ee565b6040518082815260200191505060405180910390f35b34156102e057600080fd5b6102e86108f4565b6040518080602001828103825283818151815260200191508051906020019060200280838360005b8381101561032b578082015181840152602081019050610310565b505050509050019250505060405180910390f35b341561034a57600080fd5b610376600480803573ffffffffffffffffffffffffffffffffffffffff16906020019091905050610956565b005b6103806109b0565b6040518082815260200191505060405180910390f35b34156103a157600080fd5b6103b76004808035906020019091905050610abb565b60405180826000191660001916815260200191505060405180910390f35b34156103e057600080fd5b61040c600480803573ffffffffffffffffffffffffffffffffffffffff16906020019091905050610adf565b604051808373ffffffffffffffffffffffffffffffffffffffff1673ffffffffffffffffffffffffffffffffffffffff1681526020018281526020019250505060405180910390f35b341561046057600080fd5b610468610b23565b6040518082815260200191505060405180910390f35b341561048957600080fd5b6104a3600480803560001916906020019091905050610b29565b6040518082815260200191505060405180910390f35b60008060008360001916600019168152602001908152602001600020549050919050565b600080600090505b60028054905081101561053257826000191660028281548110151561050657fe5b9060005260206000209001546000191614156105255760019150610537565b80806001019150506104e5565b600091505b50919050565b600060045460035403905090565b6000610555610bf0565b600160008473ffffffffffffffffffffffffffffffffffffffff1673ffffffffffffffffffffffffffffffffffffffff16815260200190815260200160002060010154600160008573ffffffffffffffffffffffffffffffffffffffff1673ffffffffffffffffffffffffffffffffffffffff1681526020019081526020016000206002018080548060200260200160405190810160405280929190818152602001828054801561062557602002820191906000526020600020905b815481526020019060010190808311610611575b5050505050905091509150915091565b600080600061064385610b29565b92507fffffffffffffffffffffffffffffffffffffffffffffffffffffffffffffffff831415151561067457600080fd5b6000600160003373ffffffffffffffffffffffffffffffffffffffff1673ffffffffffffffffffffffffffffffffffffffff16815260200190815260200160002060020180549050141561074b57600091505b60028054905082101561074a57600160003373ffffffffffffffffffffffffffffffffffffffff1673ffffffffffffffffffffffffffffffffffffffff16815260200190815260200160002060020180548060010182816107289190610c04565b91600052602060002090016000809091909150555081806001019250506106c7565b5b6107e4600160003373ffffffffffffffffffffffffffffffffffffffff1673ffffffffffffffffffffffffffffffffffffffff1681526020019081526020016000206002018054806020026020016040519081016040528092919081815260200182805480156107da57602002820191906000526020600020905b8154815260200190600101908083116107c6575b5050505050610ba7565b600160003373ffffffffffffffffffffffffffffffffffffffff1673ffffffffffffffffffffffffffffffffffffffff1681526020019081526020016000206001015403905083811015151561083957600080fd5b8360008087600019166000191681526020019081526020016000206000828254019250508190555083600160003373ffffffffffffffffffffffffffffffffffffffff1673ffffffffffffffffffffffffffffffffffffffff168152602001908152602001600020600201848154811015156108b157fe5b9060005260206000209001600082825401925050819055505050505050565b60006020528060005260406000206000915090505481565b60035481565b60055481565b6108fc610c30565b600280548060200260200160405190810160405280929190818152602001828054801561094c57602002820191906000526020600020905b81546000191681526020019060010190808311610934575b5050505050905090565b8073ffffffffffffffffffffffffffffffffffffffff166108fc3073ffffffffffffffffffffffffffffffffffffffff16319081150290604051600060405180830381858888f1935050505015156109ad57600080fd5b50565b600080600554348115156109c057fe5b049050806004541115156109d357600080fd5b33600160003373ffffffffffffffffffffffffffffffffffffffff1673ffffffffffffffffffffffffffffffffffffffff16815260200190815260200160002060000160006101000a81548173ffffffffffffffffffffffffffffffffffffffff021916908373ffffffffffffffffffffffffffffffffffffffff16021790555080600160003373ffffffffffffffffffffffffffffffffffffffff1673ffffffffffffffffffffffffffffffffffffffff16815260200190815260200160002060010160008282540192505081905550806004600082825403925050819055508091505090565b600281815481101515610aca57fe5b90600052602060002090016000915090505481565b60016020528060005260406000206000915090508060000160009054906101000a900473ffffffffffffffffffffffffffffffffffffffff16908060010154905082565b60045481565b600080600090505b600280549050811015610b7d578260001916600282815481101515610b5257fe5b906000526020600020900154600019161415610b7057809150610ba1565b8080600101915050610b31565b7fffffffffffffffffffffffffffffffffffffffffffffffffffffffffffffffff91505b50919050565b6000806000809150600090505b8351811015610be6578381815181101515610bcb57fe5b90602001906020020151820191508080600101915050610bb4565b8192505050919050565b602060405190810160405280600081525090565b815481835581811511610c2b57818360005260206000209182019101610c2a9190610c44565b5b505050565b602060405190810160405280600081525090565b610c6691905b80821115610c62576000816000905550600101610c4a565b5090565b905600a165627a7a723058204618b8d8d4979abeea2df88b8a778ebd68f2fca50be9acf8ea4b6e77fecca15f0029",
  "source": "pragma solidity ^0.4.18;\n// We have to specify what version of compiler this code will compile with\n\ncontract Voting {\n  /* mapping field below is equivalent to an associative array or hash.\n  The key of the mapping is candidate name stored as type bytes32 and value is\n  an unsigned integer to store the vote count\n  */\n\n  struct voter {\n  \taddress voterAddress;\n  \tuint tokensBought;\n  \tuint[] tokensUsedPerCandidate;\n  }\n  \n  mapping (bytes32 => uint) public votesReceived;\n  mapping (address => voter) public voterInfo;\n  \n  /* Solidity doesn't let you pass in an array of strings in the constructor (yet).\n  We will use an array of bytes32 instead to store the list of candidates\n  */\n  \n  bytes32[] public candidateList;\n  uint public totalTokens;\n  uint public balanceTokens;\n  uint public tokenPrice;\n\n  /* This is the constructor which will be called once when you\n  deploy the contract to the blockchain. When we deploy the contract,\n  we will pass an array of candidates who will be contesting in the election\n  */\n  function Voting(uint tokens, uint pricePerToken, bytes32[] candidateNames) public {\n    candidateList = candidateNames;\n    totalTokens = tokens;\n    balanceTokens = tokens;\n    tokenPrice = pricePerToken;\n  }\n\n  function buy () payable public returns (uint){\n  \tuint tokensToBuy = msg.value / tokenPrice;\n  \t// if (tokensToBuy > balanceTokens) throw;\n  \trequire (balanceTokens > tokensToBuy);\n  \tvoterInfo[msg.sender].voterAddress = msg.sender;\n  \tvoterInfo[msg.sender].tokensBought += tokensToBuy;\n  \tbalanceTokens -= tokensToBuy;\n  \treturn tokensToBuy;\n  }\n\n  // This function returns the total votes a candidate has received so far\n  function totalVotesFor(bytes32 candidate) view public returns (uint) {\n    //require(validCandidate(candidate));\n    return votesReceived[candidate];\n  }\n\n  // This function increments the vote count for the specified candidate. This\n  // is equivalent to casting a vote\n  function voteForCandidate(bytes32 candidate, uint votesInTokens) public {\n    //require(validCandidate(candidate));\n    uint index = indexOfCandidate(candidate);\n    require(index != uint(-1));\n    if (voterInfo[msg.sender].tokensUsedPerCandidate.length == 0){\n    \tfor(uint i = 0; i < candidateList.length; i++){\n    \t\tvoterInfo[msg.sender].tokensUsedPerCandidate.push(0);\n    \t}\n    }\n    uint availableTokens = voterInfo[msg.sender].tokensBought - totalTokensUsed(voterInfo[msg.sender].tokensUsedPerCandidate);\n    require(availableTokens >= votesInTokens);\n    votesReceived[candidate] += votesInTokens;\n    voterInfo[msg.sender].tokensUsedPerCandidate[index] += votesInTokens;\n  }\n\n  function totalTokensUsed(uint[] _tokensUsedperCandidate) private pure returns (uint) {\n  \tuint totalUsedTokens = 0;\n  \tfor(uint i = 0; i < _tokensUsedperCandidate.length; i++){\n  \t\ttotalUsedTokens += _tokensUsedperCandidate[i];\n  \t}\n  \treturn totalUsedTokens;\n  }\n\n  function indexOfCandidate(bytes32 candidate) view public returns (uint){\n  \tfor(uint i = 0; i < candidateList.length; i++){\n  \t\tif (candidateList[i] == candidate){\n  \t\t\treturn i;\n  \t\t}\n  \t}\n  \treturn uint(-1);\n  }\n\n  function tokensSold() view public returns (uint) {\n  \treturn totalTokens - balanceTokens;\n  }\n\n  function voterDetails( address user) view public returns (uint, uint[]){\n  \treturn (voterInfo[user].tokensBought, voterInfo[user].tokensUsedPerCandidate);\n  }\n\n  function transferTo(address account) public {\n  \taccount.transfer(this.balance);\n  }\n\n  function allCandidates() view public returns (bytes32[]){\n  \treturn candidateList;\n  }\n\n  function validCandidate(bytes32 candidate) view public returns (bool) {\n    for(uint i = 0; i < candidateList.length; i++) {\n      if (candidateList[i] == candidate) {\n        return true;\n      }\n    }\n    return false;\n  }\n}",
  "sourcePath": "/Users/temitopealabi/Documents/dapps/voting/contracts/Voting.sol",
  "compiler": {
    "name": "solc",
    "version": "0.4.18+commit.9cf6e910.Emscripten.clang"
  },
  "schemaVersion": "1.0.1",
  "updatedAt": "2017-12-28T22:58:32.500Z"
}